{"contracts/generated/temporary/IDatasetInfoApiTemporary.sol":{"IDatasetInfoApiTemporary":{"abi":[{"inputs":[{"components":[{"internalType":"bytes32[]","name":"merkleProof","type":"bytes32[]"},{"components":[{"internalType":"bytes32","name":"attestationType","type":"bytes32"},{"internalType":"bytes32","name":"sourceId","type":"bytes32"},{"internalType":"uint64","name":"votingRound","type":"uint64"},{"internalType":"uint64","name":"lowestUsedTimestamp","type":"uint64"},{"components":[{"internalType":"string","name":"url","type":"string"},{"internalType":"string","name":"abi_signature","type":"string"}],"internalType":"struct IDatasetInfoApi.RequestBody","name":"requestBody","type":"tuple"},{"components":[{"internalType":"bytes","name":"abi_encoded_data","type":"bytes"}],"internalType":"struct IDatasetInfoApi.ResponseBody","name":"responseBody","type":"tuple"}],"internalType":"struct IDatasetInfoApi.Response","name":"data","type":"tuple"}],"internalType":"struct IDatasetInfoApi.Proof","name":"_proof","type":"tuple"}],"name":"proof","outputs":[],"stateMutability":"pure","type":"function"},{"inputs":[{"components":[{"internalType":"bytes32","name":"attestationType","type":"bytes32"},{"internalType":"bytes32","name":"sourceId","type":"bytes32"},{"internalType":"bytes32","name":"messageIntegrityCode","type":"bytes32"},{"components":[{"internalType":"string","name":"url","type":"string"},{"internalType":"string","name":"abi_signature","type":"string"}],"internalType":"struct IDatasetInfoApi.RequestBody","name":"requestBody","type":"tuple"}],"internalType":"struct IDatasetInfoApi.Request","name":"_request","type":"tuple"}],"name":"request","outputs":[],"stateMutability":"pure","type":"function"},{"inputs":[{"components":[{"internalType":"bytes32","name":"attestationType","type":"bytes32"},{"internalType":"bytes32","name":"sourceId","type":"bytes32"},{"internalType":"uint64","name":"votingRound","type":"uint64"},{"internalType":"uint64","name":"lowestUsedTimestamp","type":"uint64"},{"components":[{"internalType":"string","name":"url","type":"string"},{"internalType":"string","name":"abi_signature","type":"string"}],"internalType":"struct IDatasetInfoApi.RequestBody","name":"requestBody","type":"tuple"},{"components":[{"internalType":"bytes","name":"abi_encoded_data","type":"bytes"}],"internalType":"struct IDatasetInfoApi.ResponseBody","name":"responseBody","type":"tuple"}],"internalType":"struct IDatasetInfoApi.Response","name":"_response","type":"tuple"}],"name":"response","outputs":[],"stateMutability":"pure","type":"function"}],"evm":{"bytecode":{"linkReferences":{},"object":"608060405234801561001057600080fd5b50610163806100206000396000f3fe608060405234801561001057600080fd5b50600436106100415760003560e01c806314cf2b1e1461004657806371740054146100595780638077673a14610067575b600080fd5b610057610054366004610075565b50565b005b6100576100543660046100b7565b6100576100543660046100f2565b60006020828403121561008757600080fd5b813567ffffffffffffffff81111561009e57600080fd5b820160c081850312156100b057600080fd5b9392505050565b6000602082840312156100c957600080fd5b813567ffffffffffffffff8111156100e057600080fd5b8201608081850312156100b057600080fd5b60006020828403121561010457600080fd5b813567ffffffffffffffff81111561011b57600080fd5b8201604081850312156100b057600080fdfea264697066735822122086d08f91754502fae15a51d537e5dbf7bfc9f8d96f3627e5a8355db04a15ee2264736f6c63430008140033","opcodes":"PUSH1 0x80 PUSH1 0x40 MSTORE CALLVALUE DUP1 ISZERO PUSH2 0x10 JUMPI PUSH1 0x0 DUP1 REVERT JUMPDEST POP PUSH2 0x163 DUP1 PUSH2 0x20 PUSH1 0x0 CODECOPY PUSH1 0x0 RETURN INVALID PUSH1 0x80 PUSH1 0x40 MSTORE CALLVALUE DUP1 ISZERO PUSH2 0x10 JUMPI PUSH1 0x0 DUP1 REVERT JUMPDEST POP PUSH1 0x4 CALLDATASIZE LT PUSH2 0x41 JUMPI PUSH1 0x0 CALLDATALOAD PUSH1 0xE0 SHR DUP1 PUSH4 0x14CF2B1E EQ PUSH2 0x46 JUMPI DUP1 PUSH4 0x71740054 EQ PUSH2 0x59 JUMPI DUP1 PUSH4 0x8077673A EQ PUSH2 0x67 JUMPI JUMPDEST PUSH1 0x0 DUP1 REVERT JUMPDEST PUSH2 0x57 PUSH2 0x54 CALLDATASIZE PUSH1 0x4 PUSH2 0x75 JUMP JUMPDEST POP JUMP JUMPDEST STOP JUMPDEST PUSH2 0x57 PUSH2 0x54 CALLDATASIZE PUSH1 0x4 PUSH2 0xB7 JUMP JUMPDEST PUSH2 0x57 PUSH2 0x54 CALLDATASIZE PUSH1 0x4 PUSH2 0xF2 JUMP JUMPDEST PUSH1 0x0 PUSH1 0x20 DUP3 DUP5 SUB SLT ISZERO PUSH2 0x87 JUMPI PUSH1 0x0 DUP1 REVERT JUMPDEST DUP2 CALLDATALOAD PUSH8 0xFFFFFFFFFFFFFFFF DUP2 GT ISZERO PUSH2 0x9E JUMPI PUSH1 0x0 DUP1 REVERT JUMPDEST DUP3 ADD PUSH1 0xC0 DUP2 DUP6 SUB SLT ISZERO PUSH2 0xB0 JUMPI PUSH1 0x0 DUP1 REVERT JUMPDEST SWAP4 SWAP3 POP POP POP JUMP JUMPDEST PUSH1 0x0 PUSH1 0x20 DUP3 DUP5 SUB SLT ISZERO PUSH2 0xC9 JUMPI PUSH1 0x0 DUP1 REVERT JUMPDEST DUP2 CALLDATALOAD PUSH8 0xFFFFFFFFFFFFFFFF DUP2 GT ISZERO PUSH2 0xE0 JUMPI PUSH1 0x0 DUP1 REVERT JUMPDEST DUP3 ADD PUSH1 0x80 DUP2 DUP6 SUB SLT ISZERO PUSH2 0xB0 JUMPI PUSH1 0x0 DUP1 REVERT JUMPDEST PUSH1 0x0 PUSH1 0x20 DUP3 DUP5 SUB SLT ISZERO PUSH2 0x104 JUMPI PUSH1 0x0 DUP1 REVERT JUMPDEST DUP2 CALLDATALOAD PUSH8 0xFFFFFFFFFFFFFFFF DUP2 GT ISZERO PUSH2 0x11B JUMPI PUSH1 0x0 DUP1 REVERT JUMPDEST DUP3 ADD PUSH1 0x40 DUP2 DUP6 SUB SLT ISZERO PUSH2 0xB0 JUMPI PUSH1 0x0 DUP1 REVERT INVALID LOG2 PUSH5 0x6970667358 0x22 SLT KECCAK256 DUP7 0xD0 DUP16 SWAP2 PUSH22 0x4502FAE15A51D537E5DBF7BFC9F8D96F3627E5A8355D 0xB0 0x4A ISZERO 0xEE 0x22 PUSH5 0x736F6C6343 STOP ADDMOD EQ STOP CALLER "},"methodIdentifiers":{"proof((bytes32[],(bytes32,bytes32,uint64,uint64,(string,string),(bytes))))":"8077673a","request((bytes32,bytes32,bytes32,(string,string)))":"71740054","response((bytes32,bytes32,uint64,uint64,(string,string),(bytes)))":"14cf2b1e"}}}}}